:060000000A128A110C280F
:10000800FE00030EF0000A08F1000A128A11A32864
:100018000A128A110F280A128A11BE200A128A119E
:10002800F80083010A128A1119280A128A119120EC
:100038000A128A1101300A128A1167200A128A11DB
:1000480083120313A4003E302406031D2C282D28F8
:100058002F28023088060030A3000130A200863025
:10006800A100A030A0000130F4000030F5000030FD
:10007800F6000030F700740883120313A002750815
:10008800031C750F48284928A1027608031C760F1F
:100098004E284F28A2027708031C770F54285528AA
:1000A800A302200A031D6228210A031D6228220ACE
:1000B800031D6228230A031D6228632837281E2887
:1000C8000A128A110C28F3007308031D6C286D2886
:1000D80072288312031306083F3990283F30831291
:1000E80003130605F2003F30720603197C287D28A9
:1000F800842878080319812882288428F8016D2823
:100108003F300605F2003F307206031D8C288D280B
:100118008F28F801F80A3F3008008312031388017A
:100128008316031388010A128A11B9200A128A1148
:100138000A128A11B3200A128A118B1708008B1C25
:10014800A628A728AC2801308312031388068B1031
:1001580071088A00700E8300FE0E7E0E0900831659
:10016800031306083F38860008008316031301139B
:060178000B160800013423
:08400000FF3FFF3FFF3FFF3FC0
:02400E00FB3F76
:00000001FF
