:020000040000FA
:060000000A128A11122809
:10000800FE00030E83120313A2000408A3000A08CB
:10001800A4007F08A5000A128A1133280A128A113F
:10002800152883133E30FD000330FE008530FF00A5
:10003800323084000A128A1169230A128A11BE0119
:10004800BF01C001C101C201C301C401C501C6018C
:10005800C701FC01FD0183010A128A114A298C1C7F
:10006800362837283F298C100130BE070030031886
:100078000130BF07003003180130C00700300318F3
:100088000130C107F8303E06243003193F06031D2E
:10009800522840034104031D52285328F7280030F2
:1000A800C1000030C0000030BF000030BE00013089
:1000B800C2070318C30A0030C3073C304206430492
:1000C800031D67286828BC28C201C3011830F7003F
:1000D8000030F8003C08013EF9003D080318013ED5
:1000E800003EFA000A128A11F5220A128A117808CB
:1000F80083120313BD007708BC000A30F7000030F4
:10010800F8000A30F0000030F1003D08F3003C0828
:10011800F2000A128A1175220A128A117108FA006D
:100128007008F9000A128A11F5220A128A11770852
:10013800323E840083130008FF007F0883120313F4
:10014800C4000A30F7000030F8003D08FA003C0807
:10015800F9000A128A11F5220A128A117708323E2A
:10016800840083130008FF007F0883120313C5006F
:100178000A30F7000030F8000A30F0000030F100D3
:100188004308F3004208F2000A128A1175220A1283
:100198008A117108FA007008F9000A128A11F5220A
:1001A8000A128A117708323E840083130008FF0080
:1001B8007F0883120313C6000A30F7000030F800E6
:1001C8004308FA004208F9000A128A11F5220A12B5
:1001D8008A117708323E840083130008FF007F08E5
:1001E80083120313C7000030F3000030F20002301E
:1001F800F1007130F0004108F7004008F6003F08B0
:10020800F5003E08F4000A128A11DB210A128A114D
:1002180073087204710470040319132914291E2920
:1002280083120313410840043F043E04031D1D29A3
:100238001E293F297C087D0403192329252901301B
:100248002629003083120313A000A1012008FC0016
:100258002108FD007C087D040319332934293A2933
:1002680045088038FF007F08C5003F2945087F39C9
:10027800FF007F08C5002508FF0024088A0023081E
:100288008400220E8300FE0E7E0E09000A128A11D7
:100298009D230A128A110A3083120313AD0000301D
:1002A800AE000A30A6000030A7003D08A9003C08AF
:1002B800A8000A128A112F220A128A118312031324
:1002C8002708B0002608AF000A128A11B9220A12BC
:1002D8008A11831203132D08323E84008313000809
:1002E800FF007F08C4000A30AD000030AE003D08B2
:1002F800B0003C08AF000A128A11B9220A128A110A
:10030800831203132D08323E8400831300088038BB
:10031800FF007F08C5000A30AD000030AE000A308B
:10032800A6000030A7004308A9004208A8000A1246
:100338008A112F220A128A11831203132708B00088
:100348002608AF000A128A11B9220A128A118312EA
:1003580003132D08323E840083130008FF007F0832
:10036800C6000A30AD000030AE004308B0004208B5
:10037800AF000A128A11B9220A128A1183120313D2
:100388002D08323E840083130008FF007F08C70051
:100398000A128A1178230A128A1144300A128A1121
:1003A8002F230A128A11D1290A128A1112287308D6
:1003B8007204710470040319E229E329262AF90159
:1003C800F90AF3290130F8000310F00DF10DF20DD0
:1003D800F30DF80BE8290130FF007F08F907F31F38
:1003E800F629F729E62973087702031D052A7208FA
:1003F8007602031D052A71087502031D052A700877
:100408007402031C082A092A172A7008F4027108C2
:10041800031C710FF5027208031C720FF6027308B1
:10042800031C730FF70201300310F30CF20CF10CEC
:10043800F00CFF3E031D182A0130F902031D252A7E
:10044800262AF7297708F3007608F2007508F100E4
:100458007408F000080083120313AA01AB012608F0
:1004680027040319382A392A702AAC01AC0A472A0A
:1004780001300310A60DA70DFF3E031D3D2A0130D4
:10048800FF007F08AC07A71F4A2A4B2A3C2A0130E5
:100498000310AA0DAB0DFF3E031D4C2A27082902A5
:1004A800031D582A26082802031C5B2A5C2A632A93
:1004B8002608A8022708031CA903A9022A14013048
:1004C8000310A70CA60CFF3E031D642A0130AC02E2
:1004D800031D6F2A702A4B2A2B08A7002A08A6009A
:1004E8000800F401F5017008710403197C2A7D2ABB
:1004F800B42AF601F60A8B2A01300310F00DF10D2B
:10050800FF3E031D812A0130FF007F08F607F11F17
:100518008E2A8F2A802A01300310F40DF50DFF3E34
:10052800031D902A71087302031D9C2A7008720229
:10053800031C9F2AA02AA72A7008F2027108031C2C
:10054800F303F302741401300310F10CF00CFF3EB6
:10055800031DA82A0130F602031DB32AB42A8F2AE4
:100568007508F1007408F0000800831203132D08C1
:100578002E040319C02AC12AF02AB101B10ACF2AD0
:1005880001300310AD0DAE0DFF3E031DC52A01302D
:10059800FF007F08B107AE1FD22AD32AC42A2E082B
:1005A8003002031DD92A2D082F02031CDC2ADD2A5C
:1005B800E32A2D08AF022E08031CB003B002013055
:1005C8000310AE0CAD0CFF3E031DE42A0130B1024E
:1005D800031DEF2AF02AD32A3008AE002F08AD00F9
:1005E8000800770878040319FA2AFB2A2A2BFB014A
:1005F800FB0A092B01300310F70DF80DFF3E031D10
:10060800FF2A0130FF007F08FB07F81F0C2B0D2B7A
:10061800FE2A78087A02031D132B77087902031C37
:10062800162B172B1D2B7708F9027808031CFA03E1
:10063800FA0201300310F80CF70CFF3E031D1E2BC5
:100648000130FB02031D292B2A2B0D2B7A08F800F9
:100658007908F700080083120313A900AA012A08E1
:100668002907A600260884008313000888000430A0
:10067800A6002A0A412B0310A60DFF3E031D3F2B9F
:100688000508C339260485009030A7000130A8006A
:100698000130A7020030031CA803A802270A031D83
:1006A800592B280A031D592B5A2B4C2B0130FF00BC
:1006B8007F08AA0704302A02031C632B642B332B00
:1006C80008007E088A007F0882000A128A116523C2
:1006D8000A128A118000840A04087D06031900346E
:1006E800FF0A0319FE0A692B8312031312149214CA
:1006F800FA308316031392008C1483120313121515
:1007080008003F3406345B344F3466346D347D342E
:1007180007347F346F340C34003483160313880194
:100728000508C3398500831203130508C3398500FA
:1007380008000A128A1191230A128A110B178B17C3
:020748000800A7
:02400E00FB3F76
:00000001FF
