:020000040000FA
:060000000A128A11F62F1E
:100E6C00831203131F14831603139F170800831296
:100E7C00031388018316031388010A128A1136277B
:100E8C000A128A110800831203131F151F194F2F02
:100E9C00502F4C2F1E08F300831603131E08F2006C
:100EAC007308F1007208F00008000A128A113D273D
:100EBC000A128A110A128A1149270A128A11710818
:100ECC00FC007008FB007C08F9007B08F8000A1293
:100EDC008A1176270A128A11602F0A128A110028A9
:100EEC00013083120313A0020030031CA103A102E2
:100EFC00200A031D862F210A0319852F862F9D2F6B
:100F0C00C430A0000930A1000A30F0000030F1001C
:100F1C007908F3007808F2000A128A11B2270A1233
:100F2C008A117008FA007A0883120313A2007D0854
:100F3C002202031CA22FA32FA52F0814A62F0810E2
:100F4C0064307D06031DAB2FAC2FAD2FFD0101309E
:100F5C00FA007A08FD070800F501F6017008710423
:100F6C000319B92FBA2FF12FF701F70AC82F013047
:100F7C000310F00DF10DFF3E031DBE2F0130F400E8
:100F8C007408F707F11FCB2FCC2FBD2F01300310A6
:100F9C00F50DF60DFF3E031DCD2F71087302031DD9
:100FAC00D92F70087202031CDC2FDD2FE42F700880
:100FBC00F2027108031CF303F302751401300310E1
:100FCC00F10CF00CFF3E031DE52F0130F702031D61
:100FDC00F02FF12FCC2F7608F1007508F0000800E7
:100FEC00FD0183120313A001A101A20183010A12C6
:040FFC008A115B2FCC
:02400E00FB3F76
:00000001FF
