:020000040000FA
:060000000A128A11F32F21
:100E9E0001348316031306083F38860008008312B8
:100EAE00031388018316031388010A128A1150272F
:100EBE000A128A1108000A128A1156270A128A117A
:100ECE0000300A128A1184270A128A11F20072085F
:100EDE00F4003F3074060319752F762F7A2F74089D
:100EEE00F2007208F30073080A128A11AE270A1272
:100EFE008A11672F0A128A110028F1007108031D4A
:100F0E00892F8A2F8F2F8312031306083F39AD2F97
:100F1E003F30831203130605F0003F3070060319AD
:100F2E00992F9A2FA12F780803199E2F9F2FA12F4B
:100F3E00F8018A2F3F300605F0003F307006031D82
:100F4E00A92FAA2FAC2FF801F80A3F300800F100A4
:100F5E000130F5070318F60A0030F6073E30710629
:100F6E00031DBA2FBB2FBC2FF22F3D307106031D70
:100F7E00C12FC22FC32FF22F3B307106031DC82F76
:100F8E00C92FCA2FF22F37307106031DCF2FD02F46
:100F9E00F22F50307506C33003197606031DD82F75
:100FAE00D92FE92FF501F60177080319DF2FE12F6D
:100FBE000130E22F0030F0007008F700F03083129D
:100FCE000313880077080319ED2FEE2FF22F0F3041
:100FDE0083120313880008000A128A114F270A127F
:100FEE008A11F800F501F601F70183010A128A1140
:020FFE00622F60
:02400E00FB3F76
:00000001FF
