:060000000A128A11ED2F27
:100E9C00013432348316031306083F3886000800E9
:100EAC008312031388018316031388010A128A1113
:100EBC0050270A128A1108000A128A1156270A12A0
:100ECC008A1100300A128A1178270A128A11F50049
:100EDC0075080A128A11A2270A128A11672F0A12A0
:100EEC008A110028F4007408031D7D2F7E2F832F98
:100EFC008312031306083F39A12F3F3083120313CB
:100F0C000605F3003F30730603198D2F8E2F952F96
:100F1C0076080319922F932F952FF6017E2F3F30D1
:100F2C000605F3003F307306031D9D2F9E2FA02F47
:100F3C00F601F60A3F300800F3000130F0020030F1
:100F4C00031CF103F102700A031DB02F710A031D7B
:100F5C00B02FB12FD42FC430F0000930F1003E3047
:100F6C007306031DBA2FBB2FC62F643077060319E7
:100F7C00C02FC12FD42F0130FF007F08F707D42FCB
:100F8C003D307306031DCB2FCC2FD42F77080319BC
:100F9C00D02FD12FD42F0130F702D42F7208770223
:100FAC00031CD92FDA2FDE2F831203130814E12F21
:100FBC0083120313081064307206031DE62FE72F0B
:100FCC00E82FF2010130FF007F08F20708000A1237
:100FDC008A114E270A128A11F6000A128A114F271B
:100FEC000A128A11F700F001F101F20183010A12D1
:040FFC008A11622FC5
:08400000FF3FFF3FFF3FFF3FC0
:02400E00FB3F76
:00000001FF
