:060000000A128A11FC2F18
:100F84000A128A11C627080083160313880105086C
:100F9400C3398500831203130508C339850008008B
:100FA400F200F10171087207F00070088400000873
:100FB4008312031388000430850008000A128A1182
:100FC400C2270A128A110630F3007308F4005B305A
:100FD400F3007308F5004F30F3007308F600663031
:100FE400F3007308F70074300A128A11D2270A1228
:0C0FF4008A11E52F83010A128A11E02FF8
:02400E00FB3F76
:00000001FF
