:020000040000FA
:100000000A128A11F62F00308A000408840A820737
:10001000003420344D3461347434723469347834AB
:10002000203420344B346534793470346134643492
:100030002034003420344E346F3420344B34653453
:100040007934203450347234653473347334653405
:10005000643420340034203420342034503472345A
:100060006534733473346534643400344B3465342C
:080070007934203420340034FF
:100B78000134831603138801091189100A128A1196
:100B8800E7260A128A110800831603130608073895
:100B980086000808F039880081138312031388152A
:100BA8000815881408140800F500F00174080A12E2
:100BB8008A1163260A128A11F001F00A75080A12CE
:100BC8008A1163260A128A1108000A128A11BD25A1
:100BD8000A128A110A128A11C8250A128A1180304B
:100BE800F7007708F40001300A128A113B260A122E
:100BF8008A1108000A128A11E9250A128A1100309E
:100C08000A128A1116260A128A11FA007A08FB00BB
:100C18007B080A128A1199260A128A11032E0A12CF
:100C28008A110028F3000A128A114A270A128A1127
:100C3800F2007208F4007308031D232E242E262EBA
:100C480074083A2E740A03192A2E2B2E322E7C0889
:100C580003192F2E302E322EFC01242E740A031D68
:100C6800362E372E392EFC01FC0AFF300800F6001C
:100C7800F00174080A128A1163260A128A11562E84
:100C8800F001F00A760884000A128A1103200A1279
:100C98008A110A128A1163260A128A110130F50094
:100CA8007508F607760884000A128A1103200A12CA
:100CB8008A11003A031D612E622E442E0800F300AB
:100CC8007018672E6B2E8312031309156E2E83126C
:100CD800031309117308F03988008914A630F1004C
:100CE800F10B742E000083120313891073080F3957
:100CF800F10003300310F10DFF3E031D7E2E03109B
:100D0800710D88008914A630F100F10B892E0000BE
:100D18008312031389101B30F2009E30F100F10B8F
:100D2800932EF20B932E00000800F900790A03199C
:100D38009E2E9F2EDC2EC030F7007708F4002E3050
:100D48000A128A113B260A128A11C12EC530F700F1
:100D58007708F40079080A128A11D8250A128A112C
:100D6800D12EC530F7007708F4007908303E0A1212
:100D78008A11D8250A128A11D12E7908F700F801AC
:100D88007808003A0319C92EB52E7708233A0319B3
:100D9800AA2E093A0319AA2EB52EC630F7007708ED
:100DA800F40023300A128A113B260A128A11E62E11
:100DB800C030F7007708F40012300A128A113B2677
:100DC8000A128A110800C330F500CD30F400F40B84
:100DD800EB2EF50BEB2EF00133300A128A11632645
:100DE8000A128A111B30F5009E30F400F40BFA2E1B
:100DF800F50BFA2E0000F00133300A128A1163262F
:100E08000A128A11A630F400F40B082F0000F00132
:100E180033300A128A1163260A128A11132F142FEB
:100E28000000F00102300A128A1163260A128A11A0
:100E3800A630F400F40B1E2F0000F00128300A122F
:100E48008A1163260A128A11A630F400F40B2A2F9D
:100E58000000F00101300A128A1163260A128A1171
:100E68000430F5003D30F400F40B382FF50B382F23
:100E78003D2FF0010C300A128A1163260A128A11DA
:100E8800A630F400F40B462F000008008312031369
:100E980088110815881408146430F0000030F10037
:100EA800FF30F0070318F10AFF30F107700A031D3D
:100EB800612F710A031D612F622F542F83120313B0
:100EC8000618672F682F6A2F0130F52F86186D2FA7
:100ED8006E2F702F0230F52F0619732F742F762F6F
:100EE8000330F52F88150811881408146430F000B1
:100EF8000030F100FF30F0070318F10AFF30F10766
:100F0800700A031D8B2F710A031D8B2F8C2F7E2FC8
:100F1800831203130618912F922F942F0430F52F64
:100F28008618972F982F9A2F0530F52F06199D2F81
:100F38009E2FA02F0630F52F881508158810081445
:100F48006430F0000030F100FF30F0070318F10AB8
:100F5800FF30F107700A031DB52F710A031DB52F65
:100F6800B62FA82F831203130618BB2FBC2FBE2F32
:100F78000730F52F8618C12FC22FC42F0830F52F40
:100F88000619C72FC82FCA2F0930F52F881508153D
:100F9800881408106430F0000030F100FF30F007CA
:100FA8000318F10AFF30F107700A031DDF2F710AD9
:100FB800031DDF2FE02FD22F831203130618E52F0E
:100FC800E62FE82F2A30F52F8618EB2FEC2FEE2F7F
:100FD8000030F52F0619F12FF22FF42F2330F52FBB
:100FE800FF3008000A128A11BC250A128A11FC0077
:080FF80083010A128A11FE2D8B
:02400E00FB3F76
:00000001FF
