:060000000A128A110C280F
:10000800FE00030EF0000A08F1000A128A115F28A8
:100018000A128A110F2883010A128A11132805303F
:10002800FA000A128A116F200A128A117A08031933
:100038001E281F2858280230831203138806003010
:10004800F9000130F8008630F700A030F6000130E2
:10005800F2000030F3000030F4000030F5007208C0
:10006800F6027308031C730F3A283B28F70274083A
:10007800031C740F40284128F8027508031C750FEB
:1000880046284728F902760A031D5428770A031DD3
:100098005428780A031D5428790A031D5428552822
:1000A8002B280130FA021A280530FA0063001A28B2
:1000B8000A128A110C288B1C6228632868280130D0
:1000C8008312031388068B1071088A00700E830050
:1000D800FE0E7E0E09008312031388018316031394
:1000E80088010A128A117C200A128A118B170800CB
:0A00F8008316031301130B16080012
:08400000FF3FFF3FFF3FFF3FC0
:02400E00FB3F76
:00000001FF
