:020000040000FA
:060000000A128A11EC2F28
:100008008316031306083F3886000800831203137B
:1000180088018316031388010A128A1104200A1220
:100028008A110A128A15F3270A128A110800F800A1
:10003800F401F5017008F200F3017208F600730884
:10004800F700781C282829282F287608F407031891
:10005800F50A7708F50701300310F60DF70DFF3E96
:10006800031D30280310F80C7808031D3C283D2890
:1000780025287508F1007408F00008000A128A1192
:100088000A200A128A1100300A128A1170200A12F4
:100098008A1183120313EC006C08EF006F080A1230
:1000A8008A119F200A128A11103083120313ED005F
:1000B8002730EE00FF30ED070318EE0AFF30EE0799
:1000C8006D0A031D6B286E0A031D6B286C285E28B9
:1000D80047280A128A110028F1007108031D7528A3
:1000E80076287B288312031306083F399E283F3061
:1000F800831203130605F0003F30700603198528A4
:1001080086288F2883160313220803198C288D2824
:100118008F28A20176283F3083120605F0003F3071
:100128007006031D982899289D2883160313A20199
:10013800A20A3F30080083120313EB000130831634
:100148000313A0020030031CA103A102200A031D0F
:10015800B128210A031DB128B228DD28A001A10178
:100168003E30831203136B06031DBB28BC28CD2821
:1001780064308316031323060319C328C428DD2813
:10018800013083120313EA006A0883160313A307D6
:10019800DD283D306B06031DD228D328DD288316C1
:1001A800031323080319D928DA28DD280130A3020C
:1001B800DD288316031323080A128A1162210A1202
:1001C8008A110800031083120313560D570DD80027
:1001D8005808DE005E08031DF228F328FC280030CA
:1001E800D7000030D6000030D5000030D400612997
:1001F8005408D8005508D9005608DA005708DB001B
:100208001F300310DB0CDA0CD90CD80CFF3E031D91
:1002180005295808DC005C08DD00D617FF30D40536
:10022800FF30D505FF30D6050030D7059630DE0201
:10023800DE1F1F2920293A295E08803A973E0318B5
:10024800262927292829F32801300310D70CD60C92
:10025800D50CD40CFF3E031D29290130D8005808BD
:10026800DE07031D382939292829512920305E0243
:10027800031C3F2940294C29F3280130D8000310DA
:10028800D40DD50DD60DD70DD80B43290130DE027C
:100298005E08031D5029512941295D080319552974
:1002A80056296129D409D509D609D709D40A0319C9
:1002B800D50A0319D60A0319D70A080083120313AB
:1002C800E7006708DF00E001E101E2016208F300EE
:1002D8006108F2006008F1005F08F00000300A12BF
:1002E8008A11F4210A128A11730883120313A700D2
:1002F8007208A6007108A5007008A4004230A30087
:10030800C830A2000030A1000030A0000A128A11F3
:10031800AE220A128A11831203132308C10022088D
:10032800C0002108BF002008BE004330BD007A305D
:10033800BC000030BB000030BA000A128A118B24BE
:100348000A128A11831203133D08E6003C08E500EF
:100358003B08E4003A08E3006608C1006508C000ED
:100368006408BF006308BE004030BD008030BC0098
:100378000030BB000030BA000A128A118B240A121E
:100388008A11831203133D08D7003C08D6003B08A6
:10039800D5003A08D4000A128A11E6200A128A11F6
:1003A800831203135508E9005408E8006908E000BF
:1003B8006808DF000310E00CDF0C0310E00CDF0C12
:1003C8005F08950068080339DF0004300310DF0D6B
:1003D800FF3E031DEA291708CF395F04970008007C
:1003E800F80078080319F929FA290E2AF31FFD29BC
:1003F800FE290E2A7009FA007109FB007209FC0037
:100408007309FD00FA0A0319FB0A0319FC0A031908
:10041800FD0A162A7308FD007208FC007108FB002B
:100428007008FA007308720471047004031D1D2A11
:100438001E2A272A0030F3000030F2000030F100B5
:100448000030F000AD2A9630F4007408F900392A1B
:100458000130F4007408F90701300310FD0CFC0C9E
:10046800FB0CFA0CFF3E031D312AFE307D05031DEF
:100478003E2A3F2A2C2A5B2A0130F4007408F90727
:100488000130FA07003003180130FB070030031869
:100498000130FC07003003180130FD07013003105C
:1004A800FD0CFC0CFB0CFA0CFF3E031D532AFF301D
:1004B8007D05031D602A612A402A6D2A0130F90250
:1004C8000130F4000310FA0DFB0DFC0DFD0DF40BCB
:1004D800662AFC1B702A712A772A023079020318CF
:1004E800762A772A622A79187A2A7B2A832AFF3081
:1004F800FA05FF30FB057F30FC05FF30FD050310D2
:10050800F90C7908F400F501F601F7011830031029
:10051800F40DF50DF60DF70DFF3E031D8B2A74083B
:10052800FA047508FB047608FC047708FD047808CB
:1005380003199F2AA02AA52AF31FA32AA42AA52AB9
:10054800FD177D08F3007C08F2007B08F1007A08AB
:10055800F00008008312031327088039A800280830
:10056800B1002708A8002807A9002908B800A61F75
:10057800BE2ABF2AC02A381438080319C42AC52A33
:10058800D52A380A031DC92ACA2AD22A0030A70048
:100598000030A6000030A5000030A400A617A7016F
:1005A800DD2A0030A7000030A6000030A50000308A
:1005B800A40023088039A8002808B1062308A80049
:1005C8002807A9002908B900A21FEB2AEC2AED2A5E
:1005D800391439080319F12AF22A022B390A031DA2
:1005E800F62AF72AFF2A0030A3000030A2000030C4
:1005F800A1000030A000A217A3010A2B0030A3001D
:100608000030A2000030A1000030A000230822041E
:1006180021042004031D112B122B2B2B0030A700C3
:100628000030A6000030A5000030A4008030A604E9
:100638007F30A7043108A8002808A7042708A300CA
:100648002608A2002508A1002408A0008A2C380842
:10065800031D2F2B302B392B0030A3000030A200B4
:100668000030A1000030A0008A2C3808A800A90199
:100678002908AB0039082802AA00031CAB032A0882
:100688007F3EB2002B080318013E003EB300270846
:10069800B0002608AF002508AE002408AD000030E1
:1006A800A7000030A6000030A5000030A4000030EC
:1006B800B7000030B6000030B5000030B400B90112
:1006C800AF2B39080319692B6A2B8A2B0130A80034
:1006D8000310AD0DAE0DAF0DB00DA80B6C2B013096
:1006E800A8000310A40DA50DA60DA70DA80B752B2A
:1006F800B71F7F2B802B812B24140130A8000310F7
:10070800B40DB50DB60DB70DA80B832B2308300219
:10071800031D982B22082F02031D982B21082E0257
:10072800031D982B20082D02031C9B2B9C2BAB2B05
:1007380037172008AD022108031C210FAE0222083A
:10074800031C220FAF022308031C230FB002013041
:10075800A8002808B9071A303902031CB42BB52B96
:10076800652B30082F042E042D040319BC2BBD2B38
:10077800DC2B3414DC2B0130A8000310A40DA50DCC
:10078800A60DA70DA80BC12BB71FCB2BCC2BCD2BA0
:1007980024140130A8000310B40DB50DB60DB70D23
:1007A800A80BCF2BFF30B2070318B30AFF30B307EB
:1007B800A61FDF2BE02BBF2BB901B71FE42BE52BBE
:1007C800012CFF303405A800FF303505A900FF30A3
:1007D8003605AA007F303705AB002B082A04290408
:1007E80028040319F82BF92BFC2BB901B90A012CA1
:1007F800241CFF2B002C012CF92B39080319052C7C
:10080800062C372C0130A407003003180130A50747
:10081800003003180130A607003003180130A7077D
:10082800271C172C182C372C2408A8002508A900E9
:100838002608AA002708AB000130AC002B0DAB0C32
:10084800AA0CA90CA80CAC0B222C2B08A7002A0870
:10085800A6002908A5002808A4000130B20703183B
:10086800B30A0030B3073308803AFF0080307F02B4
:10087800031D402CFF303202031C432C442C522C05
:10088800FF3083120313B2000030B3000030A7001A
:100898000030A6000030A5000030A4008312031326
:1008A8003308803AFF0080307F02031D5D2C013041
:1008B80032020318602C612C6E2C83120313B201D0
:1008C800B3010030A7000030A6000030A5000030BA
:1008D800A400B101831203133208A8002808B80045
:1008E800381C772C782C7A2CA6177E2C7F30A80001
:1008F8002808A6053808A8000310280CA90029080C
:10090800A7003108A8002808A704222B0800831292
:1009180003133D088039C2004208C7003D08C200E1
:100928004207C3004308CD00BC1F9B2C9C2C9D2C68
:100938004D144D080319A12CA22CB12C4D0A031DEE
:10094800A62CA72CAF2C0030BD000030BC00003016
:10095800BB000030BA00BC17B92C0030BD00003015
:10096800BC000030BB000030BA0041088039C2002A
:100978004208C7064108C2004207C3004308CC002A
:10098800C01FC72CC82CC92C4C144C080319CD2CDB
:10099800CE2CDD2C4C0A031DD22CD32CDB2C0030A2
:1009A800C1000030C0000030BF000030BE00C017DA
:1009B800E52C0030C1000030C0000030BF0000301E
:1009C800BE004C080319E92CEA2CEF2C4D08031D36
:1009D800EE2CEF2CF82C0030BD000030BC000030AD
:1009E800BB000030BA00EB2F3A08C2004208F00002
:1009F80040080A128A111B200A128A1171088312F0
:100A08000313D3007008D2005208C200C301C40106
:100A1800C5014508CB004408CA004308C90042087C
:100A2800C8005308C200C301C401C5014508D1006C
:100A38004408D0004308CF004208CE003B08C2005B
:100A48004208F0003F080A128A111B200A128A1174
:100A5800710883120313D3007008D2005208C20031
:100A6800C301C401C5014208C8074308031103189C
:100A7800013E0319402DC907440803110318013E1C
:100A88000319472DCA07450803110318013E031926
:100A98004E2DCB075308C200C301C401C50142084B
:100AA800CE07430803110318013E03195C2DCF0735
:100AB800440803110318013E0319632DD0074508A4
:100AC80003110318013E03196A2DD1073C08C2001F
:100AD8004208F0003E080A128A111B200A128A11E5
:100AE800710883120313D3007008D2005208C200A1
:100AF800C301C401C5014208C8074308031103180C
:100B0800013E0319882DC907440803110318013E43
:100B180003198F2DCA07450803110318013E03194D
:100B2800962DCB075308C200C301C401C501420872
:100B3800CE07430803110318013E0319A42DCF075C
:100B4800440803110318013E0319AB2DD0074508CB
:100B580003110318013E0319B22DD1070830C20052
:100B68000310C80DC90DCA0DCB0DC20BB42D3B081F
:100B7800C2004208F0003E080A128A111B200A121D
:100B88008A11710883120313D3007008D200520827
:100B9800C2005308C300C401C5014208C80743087E
:100BA80003110318013E0319DA2DC907440803117C
:100BB8000318013E0319E12DCA074508031103185C
:100BC800013E0319E82DCB073A08C2004208F0009D
:100BD8003F080A128A111B200A128A11710883120F
:100BE8000313D3007008D2005208C2005308C30090
:100BF800C401C5014208C807430803110318013E90
:100C08000319072EC907440803110318013E0319E5
:100C18000E2ECA07450803110318013E0319152EA5
:100C2800CB070830C2000310C80DC90DCA0DCB0D83
:100C3800C20B172E3A08C2004208F0003E080A12FA
:100C48008A111B200A128A11710883120313D30018
:100C58007008D2005208C2005308C300C401C5017D
:100C68004208C807430803110318013E03193D2E23
:100C7800C907440803110318013E0319442ECA0783
:100C8800450803110318013E03194B2ECB073B08F7
:100C9800C2004208F00040080A128A111B200A12FA
:100CA8008A11710883120313D3007008D200520806
:100CB800C2005308C300C401C5014208CE07430857
:100CC80003110318013E03196A2ECF0744080311C4
:100CD8000318013E0319712ED007450803110318A4
:100CE800013E0319782ED1073C08C2004208F000E3
:100CF8003F080A128A111B200A128A1171088312EE
:100D08000313D3007008D2005208C2005308C3006E
:100D1800C401C5014208CE07430803110318013E68
:100D28000319972ECF07440803110318013E03192E
:100D38009E2ED007450803110318013E0319A52E5E
:100D4800D1073C08C2004208F00040080A128A1184
:100D58001B200A128A11710883120313D30070082A
:100D6800D2005208C2005308C300C401C5010830AC
:100D78000310C20DC30DC40DC50DFF3E031DBC2ECF
:100D88004208CE07430803110318013E0319CD2E6C
:100D9800CF07440803110318013E0319D42ED007C6
:100DA800450803110318013E0319DB2ED107480833
:100DB800C2004908C3004A08C4004B08C5001830DF
:100DC8000310C50CC40CC30CC20CFF3E031DE42E5B
:100DD8004208CE07430803110318013E0319F52EF4
:100DE800CF07440803110318013E0319FC2ED0074E
:100DF800450803110318013E0319032FD1070830D2
:100E0800C2000310C80DC90DCA0DCB0DC20B052FAA
:100E18004D084C07C200C301C30D4208823ED200F0
:100E280043080318013EFF3ED300372F0130C200AC
:100E38000310CE0DCF0DD00DD10DC20B1C2FCB1F23
:100E4800262F272F282F4E140130C2000310C80D5B
:100E5800C90DCA0DCB0DC20B2A2FFF30D2070318BC
:100E6800D30AFF30D307D01F3A2F3B2F1A2FCC01BC
:100E7800CB1F3F2F402F5C2FFF304805C200FF30AB
:100E88004905C300FF304A05C4007F304B05C50043
:100E980045084404430442040319532F542F572F81
:100EA800CC01CC0A5C2F4E1C5A2F5B2F5C2F542F81
:100EB8004C080319602F612F922F0130CE070030A4
:100EC80003180130CF07003003180130D007003075
:100ED80003180130D107511C722F732F922F4E081F
:100EE800C2004F08C3005008C4005108C5000130B3
:100EF800C600450DC50CC40CC30CC20CC60B7D2F17
:100F08004508D1004408D0004308CF004208CE006D
:100F18000130D2070318D30A0030D3075308803AA8
:100F2800FF0080307F02031D9B2FFF305202031CFD
:100F38009E2F9F2FAA2F7F3083120313D10080305A
:100F4800D0000030CF000030CE00DF2F8312031313
:100F58005308803AFF0080307F02031DB52F01300F
:100F680052020318B82FB92FC52F0030831203136C
:100F7800D1000030D0000030CF000030CE00C701D3
:100F8800DF2F831203135208C2004208CD00FF303E
:100F9800CE05FF30CF057F30D0050030D1054D1C80
:100FA800D62FD72FD82FD0174D08C2000310420CC8
:100FB800C3004308D1004708C2004208D1045108C1
:100FC800BD005008BC004F08BB004E08BA0008001E
:100FD800831603130A128A15F1270A128A11A2002E
:100FE8000A128A15F2270A128A11A300A001A10188
:080FF80083010A128A1142284C
:101FE20001343234831603130711F930920083123D
:0E1FF20003131214921012150C309700080001
:02400E00FB3F76
:00000001FF
