:020000040000FA
:100000000A128A11FC2FFF1B0D2883137F188317F8
:100010000008840A0319FF0A080000308A00040857
:10002000840A820700342034203444345334313479
:10003000333430343734203420345434453453345A
:08004000543420342034003454
:100A16000A128A113E250A128A118316031311142B
:100A260008000A128A113E250A128A118316031338
:100A3600111508000A128A1114250A128A110A12BF
:100A46008A110B250A128A110800F0000A128A116F
:100A56003E250A128A1170088312031393000800B8
:100A6600831603138801091189100A128A11CE26EA
:100A76000A128A110800831603131419432D442DF4
:100A86003E2D11081F39031D492D4A2D3E2D080004
:100A96000A128A11E1250A128A112A300A128A11CB
:100AA600BA250A128A112A300A128A1131270A1225
:100AB6008A11502D0A128A11002800300A128A1152
:100AC6000A260A128A11F6007608F70077087F3997
:100AD600F6007608F7007708F6007608F100003091
:100AE6000A128A1179250A128A110800F2000A12DE
:100AF6008A110B250A128A11D0300A128A1128256A
:100B06000A128A1172080A128A1128250A128A11F3
:100B160071080A128A1128250A128A110A128A11E4
:100B260014250A128A110800F1000A128A113E25BC
:100B36000A128A118316031391150A128A113E2589
:100B46000A128A11831203131308F0007008F200C8
:100B56007103031DAF2DB02DB42D8316031391160B
:100B6600B72D831603139112111672080800F700A9
:100B760002300A128A110A260A128A11F60077082A
:100B8600840076088313800001300A128A110A262F
:100B96000A128A11F600770A840076088313800009
:100BA60000300A128A110A260A128A11F6007708FC
:100BB600023E84007608831380000800003083120A
:100BC6000313A3000130A2008630A100A030A000CC
:100BD6000A128A1166260A128A110A128A116025D9
:100BE6000A128A110A128A1133250A128A11013051
:100BF600F4008030F500803083120313A800280823
:100C0600F6000A128A1137260A128A110800F40021
:100C16000A128A110B250A128A11D0300A128A1179
:100C260028250A128A1174080A128A1128250A121E
:100C36008A110A128A111D250A128A11D1300A1246
:100C46008A1128250A128A1100300A128A1197255C
:100C56000A128A11F3007308F5000A128A11142584
:100C66000A128A1175080800F00176080A128A111C
:100C760098260A128A11552EF001F00A7508FF000F
:100C8600740884000A128A1103200A128A110A12B1
:100C96008A1198260A128A110130F4070318F50AF8
:100CA6000030F507750883120313FF0074088400EB
:100CB6000A128A1103200A128A11003A031D642EB1
:100CC600652E3F2E08008312031394152008A400F6
:100CD6002108A5002208A6002308A7000230031059
:100CE600A40DA50DA60DA70DFF3E031D722E270808
:100CF600F3002608F2002508F1002408F000013070
:100D0600F7003130F6002D30F5000030F4000A12FD
:100D16008A1196270A128A117008FF3E831603135A
:100D260093008312031394160800F30070189C2E88
:100D3600A02E831203130915A32E83120313091180
:100D46007308F03988008914A630F100F10BA92E3A
:100D5600000083120313891073080F39F100033062
:100D66000310F10DFF3E031DB32E0310710D880015
:100D76008914A630F100F10BBE2E00008312031376
:100D860089101B30F2009E30F100F10BC82EF20BD9
:100D9600C82E00000800C330F500CD30F400F40B77
:100DA600D22EF50BD22EF00133300A128A11982674
:100DB6000A128A111B30F5009E30F400F40BE12E66
:100DC600F50BE12E0000F00133300A128A11982645
:100DD6000A128A11A630F400F40BEF2E0000F0017F
:100DE60033300A128A1198260A128A11FA2EFB2E1D
:100DF6000000F00102300A128A1198260A128A119E
:100E0600A630F400F40B052F0000F00128300A127A
:100E16008A1198260A128A11A630F400F40B112FB3
:100E26000000F00101300A128A1198260A128A116E
:100E36000430F5003D30F400F40B1F2FF50B1F2F87
:100E4600242FF0010C300A128A1198260A128A11F0
:100E5600A630F400F40B2D2F0000080083120313B4
:100E6600A9002908840083130008F7000430031042
:100E7600F70CFF3E031D3A2F77080339303EF80082
:100E86007808A0002908840000080F39303EF700D2
:100E96007708A1003A30F7007708A200290A8400F3
:100EA6000008F70004300310F70CFF3E031D562F11
:100EB60077080739303EF8007808A300290A84002D
:100EC60000080F39303EF7007708A4003A30F700E3
:100ED6007708A5002908023E84000008F7000430C0
:100EE6000310F70CFF3E031D732F77080739303EBA
:100EF600F8007808A6002908023E840000080F3989
:100F0600303EF7007708A700A8012030F400003033
:100F1600F500C430F7007708F6000A128A11372662
:100F26000A128A1108000030FC000030FB00003075
:100F3600FA000030F9007308720471047004031992
:100F4600A52FA62FF32FFD01FD0AB62F0130F800BD
:100F56000310F00DF10DF20DF30DF80BAB2F013070
:100F6600F8007808FD07F31FB92FBA2FA92F013013
:100F7600F8000310F90DFA0DFB0DFC0DF80BBC2F54
:100F860073087702031DD12F72087602031DD12F35
:100F960071087502031DD12F70087402031CD42F2B
:100FA600D52FE42F7008F4027108031C710FF502A7
:100FB6007208031C720FF6027308031C730FF70204
:100FC600791401300310F30CF20CF10CF00CFF3E17
:100FD600031DE52F0130FD02031DF22FF32FBA2F5B
:100FE6007C08F3007B08F2007A08F1007908F0002B
:0A0FF600080083010A128A114B2D36
:02400E00FB3F76
:00000001FF
