:060000000A128A11ED2F27
:100AC4008316031306083F38860008000A128A11A9
:100AD40062250A128A110A128A117E250A128A11C3
:100AE40008003F3406345B344F3466346D347D344F
:100AF40007347F346F3401348316031388010508E7
:100B0400C3398500831203130508C339850008001F
:100B14007E088A007F0882000A128A118A250A1236
:100B24008A118000840A04087D0603190034FF0A30
:100B34000319FE0A8E2DF0006400831603178C1827
:100B4400A42DA52D9E2D7008831203178D003F3010
:100B5400FF007F08831603178C050C1483120317F8
:100B64000C080800F1007108031DB92DBA2DBF2D22
:100B74008312031306083F39DD2D3F30831203131C
:100B84000605F0003F3070060319C92DCA2DD12D7A
:100B94003E080319CE2DCF2DD12DBE01BA2D3F30E5
:100BA4000605F0003F307006031DD92DDA2DDC2D2B
:100BB400BE01BE0A3F300800F100831603178C18EB
:100BC400E42DE52DDF2D7108831203178D007008C5
:100BD4008C003F30FF007F08831603178C058312B7
:100BE400031303108B1FF72DF82DF92D03148B130A
:100BF400831603170C1555308D00AA308D008C1404
:100C04000C1183120313031C082E092E0A2E8B17B2
:100C14000800F300F40174087307F00070088400FE
:100C2400831300088312031388000430F000740A4D
:100C34001D2E0310F00DFF3E031D1B2E0508C339A6
:100C4400700485009030F1000130F2000130F102AF
:100C54000030031CF203F202710A031D352E720ADE
:100C6400031D352E362E282E0130FF007F08F40791
:100C740004307402031C3F2E402E0D2E0800F20097
:100C84003E307206031D472E482E532E8312031343
:100C94003F08F00000300A128A11DE250A128A1178
:100CA400772E3D307206031D582E592E632E0030C8
:100CB4000A128A119D250A128A1183120313BF0096
:100CC400772E3B307206031D682E692E772E013075
:100CD400FF007F0883120313BF070A303F06031D7A
:100CE400742E752E772EBF01772E831203133F08BF
:100CF4000800FD01FB1F7F2E802E872EFA09FB09B9
:100D0400FA0A0319FB0AFD01FD0AF91F8A2E8B2E2C
:100D1400902EF809F909F80A0319F90A78087904F0
:100D24000319952E962EC52EFC01FC0AA42E013023
:100D34000310F80DF90DFF3E031D9A2E0130FF003C
:100D44007F08FC07F91FA72EA82E992E79087B028D
:100D5400031DAE2E78087A02031CB12EB22EB82ED3
:100D64007808FA027908031CFB03FB020130031024
:100D7400F90CF80CFF3E031DB92E0130FC02031DD3
:100D8400C42EC52EA82E7D080319C92ECA2ECF2E17
:100D9400FA09FB09FA0A0319FB0A7B08F9007A0825
:100DA400F8000800F501F11FD82ED92EE02EF00925
:100DB400F109F00A0319F10AF501F50AF31FE32E0C
:100DC400E42EED2EF209F309F20A0319F30A0130B5
:100DD400FF007F08F506F601F70170087104031996
:100DE400F42EF52E2C2FF401F40A032F01300310F6
:100DF400F00DF10DFF3E031DF92E0130FF007F08B9
:100E0400F407F11F062F072FF82E01300310F60DFB
:100E1400F70DFF3E031D082F71087302031D142FE5
:100E240070087202031C172F182F1F2F7008F2026C
:100E34007108031CF303F302761401300310F10C60
:100E4400F00CFF3E031D202F0130F402031D2B2F55
:100E54002C2F072F75080319302F312F362FF60941
:100E6400F709F60A0319F70A7708F1007608F00083
:100E7400080024308400343083120313A0000408D3
:100E8400A1000A30A2002008840083130008A300F4
:100E9400A00A2108840023088000A10AA20B452F80
:100EA4000A128A1168250A128A1101300A128A115B
:100EB400B4250A128A1183120313B20032080A12EB
:100EC4008A1141260A128A1183120313B3000A30CD
:100ED400F8000030F9003308A000A1012008FA004E
:100EE4002108FB000A128A117B260A128A1178084B
:100EF400243E84008313000883120313B1000A30D4
:100F0400F8000030F9000A30F0000030F100330836
:100F1400A000A1012008F2002108F3000A128A119E
:100F2400D4260A128A117108FB007008FA000A120A
:100F34008A117B260A128A117808243E84008313BE
:100F4400000883120313B0000A30F8000030F900DF
:100F54006430F0000030F1003308A000A101200843
:100F6400F2002108F3000A128A11D4260A128A1107
:100F74007108FB007008FA000A128A117B260A1213
:100F84008A117808243E8400831300088312031313
:100F9400AF00E830F0000330F1003308A000A101F5
:100FA4002008F2002108F3000A128A11D4260A123A
:100FB4008A117008243E84008313000883120313EB
:100FC400AE002E300A128A110B260A128A11572FEC
:100FD4000A128A11002883133F30FD000530FE00F9
:100FE4007330FF00343084000A128A118E250A12ED
:0C0FF4008A11BF0183010A128A113B2FF1
:08400000FF3FFF3FFF3FFF3FC0
:02400E00FB3F76
:00000001FF
