:060000000A128A11F62F1E
:100EDA0001348316031306083F388600080083127C
:100EEA00031388018316031388010A128A116E27D5
:100EFA000A128A110800F1007108031D852F862F36
:100F0A008B2F8312031306083F39A92F3F30831210
:100F1A0003130605F0003F3070060319952F962F2C
:100F2A009D2F7B0803199A2F9B2F9D2FFB01862F3C
:100F3A003F300605F0003F307006031DA52FA62F8F
:100F4A00A82FFB01FB0A3F3008000A128A117427F6
:100F5A000A128A1100300A128A1180270A128A118B
:100F6A00FA003E307A06031DBB2FBC2FAF2F01308B
:100F7A008312031388060030F9000130F800863026
:100F8A00F700A030F6000130F2000030F300003024
:100F9A00F4000030F5007208F6027308031C730FA0
:100FAA00D72FD82FF7027408031C740FDD2FDE2FFA
:100FBA00F8027508031C750FE32FE42FF902760A6D
:100FCA00031DF12F770A031DF12F780A031DF12F54
:100FDA00790A031DF12FF22FC82FAF2F0A128A1197
:100FEA0000280A128A116D270A128A11FB0083014E
:060FFA000A128A11AA2F61
:08400000FF3FFF3FFF3FFF3FC0
:02400E00FB3F76
:00000001FF
