:060000000A128A110C280F
:10000800FE00030EF0000A08F1000A128A111328F4
:100018000A128A110F2883010A128A113F280B1D20
:10002800162817281E28FB3083120313810001307D
:1000380088060B1171088A00700E8300FE0E7E0E72
:1000480009008312031388018316031388010A1217
:100058008A1132200A128A118B170800831603139B
:1000680081168115FB308312031381008316031355
:1000780001128B1608000A128A1125200A128A1109
:0800880044280A128A110C2819
:08400000FF3FFF3FFF3FFF3FC0
:02400E00FB3F76
:00000001FF
